:100A4800415420434F4D4D414E44530041542B4394
:100A58004950534855540D0041542B4349504D5566
:100A6800583D300D0041542B43474154543D310DFE
:100A78000041542B435354543D22544154412E4475
:100A88004F434F4D4F2E494E5445524E4554222CFC
:100A980022222C22220D0041542B43494943520D56
:100AA8000041542B43494653520D0041542B5341A6
:100AB8005042523D312C310D0041542B4854545072
:100AC800494E49540D005343414E20594F55522029
:100AD800434152440041542B4854545050415241D0
:100AE8003D2255524C222C22687474703A2F2F7470
:100AF80065636861636869657665722E636F6D2FDB
:100B0800696275732E7068703F746169643D002670
:100B180066726D3D31303426646973743D30220D40
:100B28000041542B48545450414354494F4E3D3092
:100B38000D0043415244205343414E4E4544004129
:100B4800542B48545450524541440D00494E564187
:100B58004C494420434152440057454C434F4D456E
:100B680020544F206942555300594F5520444F4E49
:100B78002754204841564500454E4F554748204286
:100B8800414C414E4345005448414E4B20594F5526
:100B980020464F520020205553494E472069425560
:100BA800532000534552564552204552524F520049
:100BB80047455454494E47205354415254454400E4
:100BC80047534D2054455354494E472E2E2E2E0040
:10080000E4F531F532F533F534F535F536C2A71296
:100810000C4B120C77120D337FA07E0F120CA47FAD
:10082000017E00120CEB7F027E00120CA4120CE77A
:100830007F027E00120CA47BFF7A0A7948120C1EFC
:100840007F887E13120CA47BFF7A0A7954120CC4A1
:100850007F647E00120CA47BFF7A0A7960120CC4BC
:100860007F647E00120CA47BFF7A0A796D120CC49F
:100870007F647E00120CA47BFF7A0A7979120CC483
:100880007F647E00120CA47BFF7A0A799F120CC44D
:100890007FE87E03120CA47BFF7A0A79A9120CC4AC
:1008A0007F647E00120CA47BFF7A0A79B3120CC419
:1008B0007FE87E03120CA47BFF7A0A79C1120CC474
:1008C0007F647E00120CA4C2A7C2A4C2A3E4F533C5
:1008D000F53474082534F8E4F60534E5347002057F
:1008E00033640C453370EBE4F535F5367414253676
:1008F000F8E4F60536E53670020535641D453570B9
:10090000EB7F017E00120CEB120CA0120CE7120C14
:10091000A07BFF7A0A79CE120C1E120CFD7BFF7AA7
:100920000A79DD120CC47B007A007908120CC47BB2
:10093000FF7A0B7917120CC47F647E00120CA47B23
:10094000FF7A0B7929120CC47F017E00120CEB1286
:100950000CA0120CE7120CA07BFF7A0B793A120C58
:100960001E7FD07E07120CA4D2A77BFF7A0B79479B
:10097000120CC4120D0FE530B4341BD2A37F017EDC
:1009800000120CEB120CA0120CE7120CA07BFF7AE9
:100990000B7954020A38E530B4311BD2A47F017EB2
:1009A00000120CEB120CA0120CE7120CA07BFF7AC9
:1009B0000B7961020A38E5306432702FD2A37F01CF
:1009C000FE120CEB120CA0120CE7120CA07BFF7AAB
:1009D0000B7971120C1E120CA07FC07E00120CEB62
:1009E000120CA07BFF7A0B7980804DE53064337068
:1009F0002FD2A47F01FE120CEB120CA0120CE712F6
:100A00000CA07BFF7A0B798F120C1E120CA07FC0FA
:100A10007E00120CEB120CA07BFF7A0B799D8018E4
:100A2000D2A37F017E00120CEB120CA0120CE71275
:100A30000CA07BFF7A0B79AB120C1E7FDC7E0512BB
:080A40000CA4120C4B0208C7C4
:100CFD00E4FF3098FD74082FF8A699C2980FBF0C29
:010D0D00F1F4
:010D0E0022C2
:100D0F00E4FF3098FD74142FF8A699C2980FBF1DF9
:010D1F00F1E2
:010D200022B0
:100CC4008B378A388939AB37AA38A939120BD8FF40
:100CD4006010120D4B74012539F539E43538F538B7
:020CE40080E4AA
:010CE60022EB
:080D4B008F993099FDC2992235
:100C7700120CE7120CA07BFF7A0B79B8120C1E7FBF
:100C8700C07E00120CEB120CA07BFF7A0B79C81206
:090C97000C1E7F1E7E00020CA45D
:100C4B007F387E00120CEB120CA07F017E00120C81
:100C5B00EB120CA07F0E7E00120CEB120CA07F0689
:0C0C6B007E00120CEB7F0A7E00020CA43D
:0C0D3300759850758920758DFDD28E22B8
:060C1E008B378A3889398A
:100C2400E4F53AF53BAB37AA38A939853B82853AD6
:100C340083120BF1FF600F7E00120D21053BE53B93
:060C440070E3053A80DFB9
:010C4A002287
:040CE7007F807E008C
:100CEB008F90C2A2C2A1D2A07F017E00120CA4C21F
:020CFB00A02235
:100D21008F90D2A2C2A1D2A07F017E00120CA4C2D8
:020D3100A022FE
:040CA0007F0A7E0049
:100CA400E4FDFCD3ED9FEC9E5015E4FBFA0BBB0076
:0F0CB400010ABA04F8BBFBF50DBD00010C80E48A
:010CC300220E
:03000000020D3FAF
:0C0D3F00787FE4F6D8FD75813B020800C7
:100BD800BB010689828A83E0225002E722BBFE021B
:090BE800E32289828A83E493224E
:100BF100BB010CE58229F582E5833AF583E02250B9
:100C010006E92582F8E622BBFE06E92582F8E22202
:0D0C1100E58229F582E5833AF583E493221C
:00000001FF
