:100AC200415420434F4D4D414E44530041542B431A
:100AD2004950534855540D0041542B4349504D55EC
:100AE200583D300D0041542B43474154543D310D84
:100AF2000041542B435354543D22544154412E44FB
:100B02004F434F4D4F2E494E5445524E4554222C81
:100B120022222C22220D0041542B43494943520DDB
:100B22000041542B43494653520D0041542B53412B
:100B32005042523D312C310D0041542B48545450F7
:100B4200494E49540D005343414E20594F555220AE
:100B5200434152440041542B485454505041524155
:100B62003D2255524C222C22687474703A2F2F74F5
:100B720065636861636869657665722E636F6D2F60
:100B8200696275732E7068703F746169643D2700F5
:100B9200272666726D3D31303026646973743D00DC
:100BA2000D0041542B48545450414354494F4E3D3B
:100BB200300D0043415244205343414E4E454400C0
:100BC20041542B48545450524541440D00494E560D
:100BD200414C494420434152440057454C434F4DF8
:100BE2004520544F0054454C452D5249434B5348E0
:100BF200415700594F5520444F4E275420484156E3
:100C02004500454E4F5547482042414C414E4345D1
:100C1200005448414E4B530044495354414E4345BE
:100C22003D00204D00534552564552204552524FE9
:100C3200520047455454494E47205354415254455B
:100C4200440047534D2054455354494E472E2E2EAF
:020C52002E0072
:10080000E4F532F533F534F535F536F537F538F5E9
:1008100039F53AF53BC2A7F580120D1C120D4812AE
:100820000E047FA07E0F120D757F017E00120DBC9D
:100830007F027E00120D75120DB87F027E00120D30
:10084000757BFF7A0A79C2120CEF7F887E13120D36
:10085000757BFF7A0A79CE120D957F647E00120DAA
:10086000757BFF7A0A79DA120D957F647E00120D8E
:10087000757BFF7A0A79E7120D957F647E00120D71
:10088000757BFF7A0A79F3120D957F647E00120D55
:10089000757BFF7A0B7919120D957FE87E03120D97
:1008A000757BFF7A0B7923120D957F647E00120D04
:1008B000757BFF7A0B792D120D957FE87E03120D63
:1008C000757BFF7A0B793B120D957F647E00120DCC
:1008D00075C2A7C2A4C2A37F017E00120DBC120D77
:1008E00071120DB8120D717BFF7A0B7948120CEF63
:1008F000120DCE7BFF7A0B7957120D957B007A0093
:100900007908120D957BFF7A0B7992120D95AF80C5
:10091000120E1C7BFF7A0B79A2120D957F647E006C
:10092000120D757BFF7A0B79A4120D957F017E0065
:10093000120DBC120D71120DB8120D717BFF7A0BE6
:1009400079B5120CEF7FD07E07120D75D2A77BFF11
:100950007A0B79C2120D95120DE0E530B4301BD23E
:10096000A37F017E00120DBC120D71120DB8120D85
:10097000717BFF7A0B79CF120CEFE5306431702D6B
:10098000D2A37F01FE120DBC120D71120DB8120D13
:10099000717BFF7A0B79DC120CEF7FC07E00120DA9
:1009A000BC120D717BFF7A0B79E7120CEFE5306416
:1009B000327030D2A37F01FE120DBC120D71120DE8
:1009C000B8120D717BFF7A0B79F5120CEF120D71D5
:1009D0007FC07E00120DBC120D717BFF7A0C790472
:1009E000120CEFE53064336003020A9FD2A37F014B
:1009F000FE120DBC120D71120DB8120D717BFF7A33
:100A00000C7913120CEF120D717FC07E00120DBC19
:100A1000120D717BFF7A0C791A120CEFAF807E00F9
:100A20007C037DE8120C9A8E348F35AF807E007C7B
:100A3000037DE8120C9A8D80E58075F0648475362C
:100A400000F537E58075F0648485F080E58075F009
:100A50000A84753800F539E58075F00A8485F080E0
:100A6000AF807538008F39E5352430FFE43534FE2A
:100A7000120DF2E5372430FFE43536FE120DF2E5B3
:100A8000392430FFE43538FE120DF2E53B2430FF07
:100A9000E4353AFE120DF27BFF7A0C792480167F42
:100AA000017E00120DBC120D71120DB8120D717B7A
:100AB000FF7A0C7927120CEF7FDC7E05120D750290
:020AC00008D15B
:100DCE00E4FF3098FD74082FF8A699C2980FBF0C57
:010DDE00F123
:010DDF0022F1
:100DE000E4FF3098FD74142FF8A699C2980FBF1E27
:010DF000F111
:010DF10022DF
:100D95008B3C8A3D893EAB3CAA3DA93E120C54FFD3
:100DA5006010120E1C7401253EF53EE4353DF53DFF
:020DB50080E4D8
:010DB7002219
:080E1C008F993099FDC2992263
:100D4800120DB8120D717BFF7A0C7934120CEF7FFB
:100D5800C07E00120DBC120D717BFF7A0C79441213
:090D68000CEF7F1E7E00020D75E8
:100D1C007F387E00120DBC120D717F017E00120D0A
:100D2C00BC120D717F0E7E00120DBC120D717F0670
:0C0D3C007E00120DBC7F0A7E00020D75C7
:0C0E0400759850758920758DFDD28E22E6
:060CEF008B3C8A3D893EAA
:100CF500E4F53FF540AB3CAA3DA93E854082853FE2
:100D050083120C6DFF600F7E00120DF20540E54069
:060D150070E3053F80DFE2
:010D1B0022B5
:040DB8007F807E00BA
:100DBC008F90C2A2C2A1D2A07F017E00120D75C27B
:020DCC00A02263
:100DF2008F90D2A2C2A1D2A07F017E00120D75C235
:020E0200A0222C
:040D71007F0A7E0077
:100D7500E4FDFCD3ED9FEC9E5015E4FBFA0BBB00A4
:0F0D8500010ABA04F8BBFBF50DBD00010C80E4B8
:010D9400223C
:03000000020E10DD
:0C0E1000787FE4F6D8FD758140020800F0
:100C5400BB010689828A83E0225002E722BBFE029E
:090C6400E32289828A83E49322D1
:100C6D00BB010CE58229F582E5833AF583E022503C
:100C7D0006E92582F8E622BBFE06E92582F8E22286
:0D0C8D00E58229F582E5833AF583E49322A0
:100C9A00BC000BBE0029EF8DF084FFADF022E4CC3E
:100CAA00F875F008EF2FFFEE33FEEC33FCEE9DEC07
:100CBA00984005FCEE9DFE0FD5F0E9E4CEFD22ED4D
:100CCA00F8F5F0EE8420D21CFEADF075F008EF2F97
:100CDA00FFED33FD4007985006D5F0F222C398FD88
:050CEA000FD5F0EA2225
:00000001FF
