:100B2300415420434F4D4D414E44530041542B43B8
:100B33004950534855540D0041542B4349504D558A
:100B4300583D300D0041542B43474154543D310D22
:100B53000041542B435354543D22534D4152544E60
:100B63004554222C22222C22220D0041542B43498E
:100B73004943520D0041542B43494653520D004102
:100B8300542B53415042523D312C310D0041542BD3
:100B930048545450494E49540D005343414E205933
:100BA3004F555220434152440041542B4854545012
:100BB300504152413D2255524C222C22687474708C
:100BC3003A2F2F7465636861636869657665722E71
:100BD300636F6D2F696275732E7068703F746169FE
:100BE300643D002666726D3D31303026646973744E
:100BF3003D00220D0041542B485454504143544965
:100C03004F4E3D300D0043415244205343414E4E1D
:100C130045440041542B48545450524541440D001F
:100C2300494E56414C494420434152440057454C98
:100C3300434F4D4520544F0054454C452D52494395
:100C43004B5348415700594F5520444F4E2754208A
:100C53004841564500454E4F5547482042414C4177
:100C63004E4345005448414E4B530044495354416D
:100C73004E43453D00204D005345525645522045B5
:100C830052524F520047455454494E472053544102
:100C9300525445440047534D2054455354494E47FD
:050CA3002E2E2E2E0094
:060EF800043230303030FE
:10080000E4F536F537F538F539F53AF53BF53CF5CD
:100810003DF53EF53FF540F541F542F54375443071
:10082000C2A7F508120DFC120E28120EE47FA07E5E
:100830000F120E557F017E00120E9C7F027E001269
:100840000E55120E987F027E00120E557BFF7A0B1A
:100850007923120DCF7F887E13120E557BFF7A0B02
:10086000792F120E757F647E00120E557BFF7A0B76
:10087000793B120E757F647E00120E557BFF7A0B5A
:100880007948120E757F647E00120E557BFF7A0B3D
:100890007954120E757F647E00120E557BFF7A0B21
:1008A000796E120E757FE87E03120E557BFF7A0B70
:1008B0007978120E757F647E00120E557BFF7A0BDD
:1008C0007982120E757FE87E03120E557BFF7A0B3C
:1008D0007990120E757F647E00120E55C2A7C2A4D5
:1008E000C2A37F017E00120E9C120E51120E9812AE
:1008F0000E51E4F542F54374092543F8E4F6054347
:10090000E54370020542640C454270EBE4F540F5A6
:100910004174152541F8E4F60541E54170020540B2
:10092000641D454070EB858008E508FB7C037DE88D
:10093000FF7E00120CEE8E388F397C037DE8AF030A
:100940007E00120CEE8D08E50875F06484753A009F
:10095000F53BE50875F0648485F008E50875F00A54
:1009600084753C00F53DE50875F00A8485F008754E
:100970003E0085083FE5392430F532E53B2430F56B
:1009800033E53D2430F534E53F2430F5357BFF7AFF
:100990000B799D120DCF120EAE7BFF7A0B79AC1244
:1009A0000E757B007A007909120E757BFF7A0B7940
:1009B000E6120E75AF44120EF07B007A0079321207
:1009C0000E757BFF7A0B79F5120E757F647E00122F
:1009D0000E557BFF7A0B79F8120E757F017E00129F
:1009E0000E9C120E51120E98120E517BFF7A0C794A
:1009F00009120DCF7FD07E07120E55D2A77BFF7A4A
:100A00000C7916120E75120EC0E531B4341BD2A348
:100A10007F017E00120E9C120E51120E98120E5182
:100A20007BFF7A0C7923020B16E5316431702DD2ED
:100A3000A37F01FE120E9C120E51120E98120E513F
:100A40007BFF7A0C7930120DCF7FC07E00120E9C96
:100A5000120E517BFF7A0C793B020B16E5316432A2
:100A60007030D2A37F01FE120E9C120E51120E980E
:100A7000120E517BFF7A0C7949120DCF120E517F65
:100A8000C07E00120E9C120E517BFF7A0C79580228
:100A90000B16E53164337068D2A37F01FE120E9C01
:100AA000120E51120E98120E517BFF7A0C796712BA
:100AB0000DCF120E517FC07E00120E9C120E517B84
:100AC000FF7A0C796E120DCFE5392430FFE435380A
:100AD000FE120ED2E53B2430FFE4353AFE120ED270
:100AE000E53D2430FFE4353CFE120ED2E53F2430D4
:100AF000FFE4353EFE120ED27BFF7A0C7978801629
:100B00007F017E00120E9C120E51120E98120E5191
:100B10007BFF7A0C797B120DCF7FF47E01120E558C
:030B20000208DCEC
:100EAE00E4FF3098FD74092FF8A699C2980FBF0C75
:010EBE00F142
:010EBF002210
:100EC000E4FF3098FD74152FF8A699C2980FBF1E45
:010ED000F130
:010ED10022FE
:100E75008B458A468947AB45AA46A947120CA8FF68
:100E85006010120EF074012547F547E43546F54626
:020E950080E4F7
:010E97002238
:080EF0008F993099FDC299228F
:100E2800120E98120E517BFF7A0C7988120DCF7F23
:100E3800C07E00120E9C120E517BFF7A0C7998121C
:090E48000DCF7F1E7E00020E5545
:100DFC007F387E00120E9C120E517F017E00120E67
:100E0C009C120E517F0E7E00120E9C120E517F060C
:0C0E1C007E00120E9C7F0A7E00020E5524
:0C0EE400759850758920758DFDD28E2206
:060DCF008B458A468947AE
:100DD500E4F548F549AB45AA46A9478549828548C2
:100DE50083120CC1FF600F7E00120ED20549E54942
:060DF50070E3054880DFF9
:010DFB0022D5
:040E98007F807E00D9
:100E9C008F90C2A2C2A1D2A07F017E00120E55C2B9
:020EAC00A02282
:100ED2008F90D2A2C2A1D2A07F017E00120E55C273
:020EE200A0224C
:040E51007F0A7E0096
:100E5500E4FDFCD3ED9FEC9E5015E4FBFA0BBB00C3
:0F0E6500010ABA04F8BBFBF50DBD00010C80E4D7
:010E7400225B
:03000000020D43AB
:0C0D4300787FE4F6D8FD758149020D8A26
:100CA800BB010689828A83E0225002E722BBFE024A
:090CB800E32289828A83E493227D
:100CC100BB010CE58229F582E5833AF583E02250E8
:100CD10006E92582F8E622BBFE06E92582F8E22232
:0D0CE100E58229F582E5833AF583E493224C
:100CEE00BC000BBE0029EF8DF084FFADF022E4CCEA
:100CFE00F875F008EF2FFFEE33FEEC33FCEE9DECB3
:100D0E00984005FCEE9DFE0FD5F0E9E4CEFD22EDF8
:100D1E00F8F5F0EE8420D21CFEADF075F008EF2F42
:100D2E00FFED33FD4007985006D5F0F222C398FD33
:050D3E000FD5F0EA22D0
:100D4F00020800E493A3F8E493A34003F68001F2B2
:100D5F0008DFF48029E493A3F85407240CC8C333A5
:100D6F00C4540F4420C8834004F456800146F6DF74
:100D7F00E4800B0102040810204080900EF8E47EFE
:100D8F00019360BCA3FF543F30E509541FFEE49369
:100D9F00A360010ECF54C025E060A840B8E493A330
:100DAF00FAE493A3F8E493A3C8C582C8CAC583CA5B
:100DBF00F0A3C8C582C8CAC583CADFE9DEE780BE13
:010EFE0000F3
:00000001FF
